{
  "contractName": "E_contract",
  "abi": [
    {
      "constant": true,
      "inputs": [],
      "name": "count",
      "outputs": [
        {
          "name": "",
          "type": "string"
        }
      ],
      "payable": false,
      "stateMutability": "view",
      "type": "function",
      "signature": "0x06661abd"
    },
    {
      "constant": true,
      "inputs": [],
      "name": "name",
      "outputs": [
        {
          "name": "",
          "type": "string"
        }
      ],
      "payable": false,
      "stateMutability": "view",
      "type": "function",
      "signature": "0x06fdde03"
    },
    {
      "constant": true,
      "inputs": [
        {
          "name": "",
          "type": "int256"
        }
      ],
      "name": "indexes",
      "outputs": [
        {
          "name": "",
          "type": "uint256"
        }
      ],
      "payable": false,
      "stateMutability": "view",
      "type": "function",
      "signature": "0x1a0e9c38"
    },
    {
      "constant": true,
      "inputs": [],
      "name": "carCount",
      "outputs": [
        {
          "name": "",
          "type": "uint256"
        }
      ],
      "payable": false,
      "stateMutability": "view",
      "type": "function",
      "signature": "0x297a1f56"
    },
    {
      "constant": true,
      "inputs": [],
      "name": "owner",
      "outputs": [
        {
          "name": "",
          "type": "address"
        }
      ],
      "payable": false,
      "stateMutability": "view",
      "type": "function",
      "signature": "0x8da5cb5b"
    },
    {
      "constant": true,
      "inputs": [],
      "name": "productCount",
      "outputs": [
        {
          "name": "",
          "type": "uint256"
        }
      ],
      "payable": false,
      "stateMutability": "view",
      "type": "function",
      "signature": "0xe0f6ef87"
    },
    {
      "constant": true,
      "inputs": [
        {
          "name": "",
          "type": "uint256"
        }
      ],
      "name": "Cars",
      "outputs": [
        {
          "name": "index",
          "type": "uint256"
        },
        {
          "name": "car_number",
          "type": "int256"
        },
        {
          "name": "price",
          "type": "uint256"
        },
        {
          "name": "ownerN_ID",
          "type": "uint256"
        },
        {
          "name": "model",
          "type": "string"
        },
        {
          "name": "Description",
          "type": "string"
        },
        {
          "name": "color",
          "type": "string"
        },
        {
          "name": "for_sell",
          "type": "bool"
        },
        {
          "name": "owner",
          "type": "address"
        }
      ],
      "payable": false,
      "stateMutability": "view",
      "type": "function",
      "signature": "0xf40e03c2"
    },
    {
      "inputs": [],
      "payable": false,
      "stateMutability": "nonpayable",
      "type": "constructor",
      "signature": "constructor"
    },
    {
      "anonymous": false,
      "inputs": [
        {
          "indexed": false,
          "name": "index",
          "type": "uint256"
        },
        {
          "indexed": false,
          "name": "car_num",
          "type": "int256"
        },
        {
          "indexed": false,
          "name": "price",
          "type": "uint256"
        },
        {
          "indexed": false,
          "name": "ownerN_ID",
          "type": "uint256"
        },
        {
          "indexed": false,
          "name": "model",
          "type": "string"
        },
        {
          "indexed": false,
          "name": "Description",
          "type": "string"
        },
        {
          "indexed": false,
          "name": "color",
          "type": "string"
        },
        {
          "indexed": false,
          "name": "for_sell",
          "type": "bool"
        },
        {
          "indexed": false,
          "name": "owner",
          "type": "address"
        }
      ],
      "name": "CarCreated",
      "type": "event",
      "signature": "0xd5769e592e90b8e821fc58f5a675f9480c9454f079ba73807014660545972368"
    },
    {
      "constant": false,
      "inputs": [
        {
          "name": "car_num",
          "type": "int256"
        },
        {
          "name": "price",
          "type": "uint256"
        },
        {
          "name": "ownerN_ID",
          "type": "uint256"
        },
        {
          "name": "model",
          "type": "string"
        },
        {
          "name": "descrip",
          "type": "string"
        },
        {
          "name": "color",
          "type": "string"
        }
      ],
      "name": "createCar",
      "outputs": [],
      "payable": false,
      "stateMutability": "nonpayable",
      "type": "function",
      "signature": "0xf6086390"
    },
    {
      "constant": false,
      "inputs": [
        {
          "name": "id",
          "type": "int256"
        },
        {
          "name": "price",
          "type": "uint256"
        }
      ],
      "name": "chang_Car_price_status",
      "outputs": [],
      "payable": false,
      "stateMutability": "nonpayable",
      "type": "function",
      "signature": "0x1b1a05d8"
    },
    {
      "constant": false,
      "inputs": [
        {
          "name": "id",
          "type": "int256"
        },
        {
          "name": "buyer_N_ID",
          "type": "uint256"
        }
      ],
      "name": "sell",
      "outputs": [],
      "payable": true,
      "stateMutability": "payable",
      "type": "function",
      "signature": "0xd2d5b3c4"
    }
  ],
  "bytecode": "0x608060405260006003553480156200001657600080fd5b506040805190810160405280600e81526020017f636f6e7472616374205e202d205e0000000000000000000000000000000000008152506000908051906020019062000064929190620000c9565b506040805190810160405280600581526020017f636f756e7400000000000000000000000000000000000000000000000000000081525060029080519060200190620000b2929190620000c9565b506000600381905550600060048190555062000178565b828054600181600116156101000203166002900490600052602060002090601f016020900481019282601f106200010c57805160ff19168380011785556200013d565b828001600101855582156200013d579182015b828111156200013c5782518255916020019190600101906200011f565b5b5090506200014c919062000150565b5090565b6200017591905b808211156200017157600081600090555060010162000157565b5090565b90565b611e7180620001886000396000f3fe6080604052600436106100a4576000357c0100000000000000000000000000000000000000000000000000000000900463ffffffff16806306661abd146100a957806306fdde03146101395780631a0e9c38146101c95780631b1a05d814610218578063297a1f561461025d5780638da5cb5b14610288578063d2d5b3c4146102df578063e0f6ef8714610317578063f40e03c214610342578063f608639014610528575b600080fd5b3480156100b557600080fd5b506100be61073c565b6040518080602001828103825283818151815260200191508051906020019080838360005b838110156100fe5780820151818401526020810190506100e3565b50505050905090810190601f16801561012b5780820380516001836020036101000a031916815260200191505b509250505060405180910390f35b34801561014557600080fd5b5061014e6107da565b6040518080602001828103825283818151815260200191508051906020019080838360005b8381101561018e578082015181840152602081019050610173565b50505050905090810190601f1680156101bb5780820380516001836020036101000a031916815260200191505b509250505060405180910390f35b3480156101d557600080fd5b50610202600480360360208110156101ec57600080fd5b8101908080359060200190929190505050610878565b6040518082815260200191505060405180910390f35b34801561022457600080fd5b5061025b6004803603604081101561023b57600080fd5b810190808035906020019092919080359060200190929190505050610890565b005b34801561026957600080fd5b50610272610ca1565b6040518082815260200191505060405180910390f35b34801561029457600080fd5b5061029d610ca7565b604051808273ffffffffffffffffffffffffffffffffffffffff1673ffffffffffffffffffffffffffffffffffffffff16815260200191505060405180910390f35b610315600480360360408110156102f557600080fd5b810190808035906020019092919080359060200190929190505050610ccd565b005b34801561032357600080fd5b5061032c6114a4565b6040518082815260200191505060405180910390f35b34801561034e57600080fd5b5061037b6004803603602081101561036557600080fd5b81019080803590602001909291905050506114aa565b604051808a8152602001898152602001888152602001878152602001806020018060200180602001861515151581526020018573ffffffffffffffffffffffffffffffffffffffff1673ffffffffffffffffffffffffffffffffffffffff168152602001848103845289818151815260200191508051906020019080838360005b838110156104175780820151818401526020810190506103fc565b50505050905090810190601f1680156104445780820380516001836020036101000a031916815260200191505b50848103835288818151815260200191508051906020019080838360005b8381101561047d578082015181840152602081019050610462565b50505050905090810190601f1680156104aa5780820380516001836020036101000a031916815260200191505b50848103825287818151815260200191508051906020019080838360005b838110156104e35780820151818401526020810190506104c8565b50505050905090810190601f1680156105105780820380516001836020036101000a031916815260200191505b509c5050505050505050505050505060405180910390f35b34801561053457600080fd5b5061073a600480360360c081101561054b57600080fd5b810190808035906020019092919080359060200190929190803590602001909291908035906020019064010000000081111561058657600080fd5b82018360208201111561059857600080fd5b803590602001918460018302840111640100000000831117156105ba57600080fd5b91908080601f016020809104026020016040519081016040528093929190818152602001838380828437600081840152601f19601f8201169050808301925050505050505091929192908035906020019064010000000081111561061d57600080fd5b82018360208201111561062f57600080fd5b8035906020019184600183028401116401000000008311171561065157600080fd5b91908080601f016020809104026020016040519081016040528093929190818152602001838380828437600081840152601f19601f820116905080830192505050505050509192919290803590602001906401000000008111156106b457600080fd5b8201836020820111156106c657600080fd5b803590602001918460018302840111640100000000831117156106e857600080fd5b91908080601f016020809104026020016040519081016040528093929190818152602001838380828437600081840152601f19601f8201169050808301925050505050505091929192905050506116ed565b005b60028054600181600116156101000203166002900480601f0160208091040260200160405190810160405280929190818152602001828054600181600116156101000203166002900480156107d25780601f106107a7576101008083540402835291602001916107d2565b820191906000526020600020905b8154815290600101906020018083116107b557829003601f168201915b505050505081565b60008054600181600116156101000203166002900480601f0160208091040260200160405190810160405280929190818152602001828054600181600116156101000203166002900480156108705780601f1061084557610100808354040283529160200191610870565b820191906000526020600020905b81548152906001019060200180831161085357829003601f168201915b505050505081565b60066020528060005260406000206000915090505481565b6000600660008481526020019081526020016000205490506108b0611d3b565b60056000838152602001908152602001600020610120604051908101604052908160008201548152602001600182015481526020016002820154815260200160038201548152602001600482018054600181600116156101000203166002900480601f0160208091040260200160405190810160405280929190818152602001828054600181600116156101000203166002900480156109915780601f1061096657610100808354040283529160200191610991565b820191906000526020600020905b81548152906001019060200180831161097457829003601f168201915b50505050508152602001600582018054600181600116156101000203166002900480601f016020809104026020016040519081016040528092919081815260200182805460018160011615610100020316600290048015610a335780601f10610a0857610100808354040283529160200191610a33565b820191906000526020600020905b815481529060010190602001808311610a1657829003601f168201915b50505050508152602001600682018054600181600116156101000203166002900480601f016020809104026020016040519081016040528092919081815260200182805460018160011615610100020316600290048015610ad55780601f10610aaa57610100808354040283529160200191610ad5565b820191906000526020600020905b815481529060010190602001808311610ab857829003601f168201915b505050505081526020016007820160009054906101000a900460ff161515151581526020016007820160019054906101000a900473ffffffffffffffffffffffffffffffffffffffff1673ffffffffffffffffffffffffffffffffffffffff1673ffffffffffffffffffffffffffffffffffffffff16815250509050600160036000828254019250508190555060018160e00190151590811515815250508281604001818152505080600560006003548152602001908152602001600020600082015181600001556020820151816001015560408201518160020155606082015181600301556080820151816004019080519060200190610bd7929190611da0565b5060a0820151816005019080519060200190610bf4929190611da0565b5060c0820151816006019080519060200190610c11929190611da0565b5060e08201518160070160006101000a81548160ff0219169083151502179055506101008201518160070160016101000a81548173ffffffffffffffffffffffffffffffffffffffff021916908373ffffffffffffffffffffffffffffffffffffffff16021790555090505060035460066000836020015181526020019081526020016000208190555050505050565b60035481565b600160009054906101000a900473ffffffffffffffffffffffffffffffffffffffff1681565b81600060066000838152602001908152602001600020549050610cee611d3b565b60056000838152602001908152602001600020610120604051908101604052908160008201548152602001600182015481526020016002820154815260200160038201548152602001600482018054600181600116156101000203166002900480601f016020809104026020016040519081016040528092919081815260200182805460018160011615610100020316600290048015610dcf5780601f10610da457610100808354040283529160200191610dcf565b820191906000526020600020905b815481529060010190602001808311610db257829003601f168201915b50505050508152602001600582018054600181600116156101000203166002900480601f016020809104026020016040519081016040528092919081815260200182805460018160011615610100020316600290048015610e715780601f10610e4657610100808354040283529160200191610e71565b820191906000526020600020905b815481529060010190602001808311610e5457829003601f168201915b50505050508152602001600682018054600181600116156101000203166002900480601f016020809104026020016040519081016040528092919081815260200182805460018160011615610100020316600290048015610f135780601f10610ee857610100808354040283529160200191610f13565b820191906000526020600020905b815481529060010190602001808311610ef657829003601f168201915b505050505081526020016007820160009054906101000a900460ff161515151581526020016007820160019054906101000a900473ffffffffffffffffffffffffffffffffffffffff1673ffffffffffffffffffffffffffffffffffffffff1673ffffffffffffffffffffffffffffffffffffffff16815250509050600081610100015190508160e001511515610fa957600080fd5b81604001513410151515610fbc57600080fd5b3373ffffffffffffffffffffffffffffffffffffffff168173ffffffffffffffffffffffffffffffffffffffff1614151515610ff757600080fd5b600060066000888152602001908152602001600020549050611017611d3b565b60056000838152602001908152602001600020610120604051908101604052908160008201548152602001600182015481526020016002820154815260200160038201548152602001600482018054600181600116156101000203166002900480601f0160208091040260200160405190810160405280929190818152602001828054600181600116156101000203166002900480156110f85780601f106110cd576101008083540402835291602001916110f8565b820191906000526020600020905b8154815290600101906020018083116110db57829003601f168201915b50505050508152602001600582018054600181600116156101000203166002900480601f01602080910402602001604051908101604052809291908181526020018280546001816001161561010002031660029004801561119a5780601f1061116f5761010080835404028352916020019161119a565b820191906000526020600020905b81548152906001019060200180831161117d57829003601f168201915b50505050508152602001600682018054600181600116156101000203166002900480601f01602080910402602001604051908101604052809291908181526020018280546001816001161561010002031660029004801561123c5780601f106112115761010080835404028352916020019161123c565b820191906000526020600020905b81548152906001019060200180831161121f57829003601f168201915b505050505081526020016007820160009054906101000a900460ff161515151581526020016007820160019054906101000a900473ffffffffffffffffffffffffffffffffffffffff1673ffffffffffffffffffffffffffffffffffffffff1673ffffffffffffffffffffffffffffffffffffffff16815250509050600081610100015190503382610100019073ffffffffffffffffffffffffffffffffffffffff16908173ffffffffffffffffffffffffffffffffffffffff16815250508782606001818152505060008260e0019015159081151581525050600360008154809291906001019190505550600354826000018181525050600354600660008460200151815260200190815260200160002081905550816005600060035481526020019081526020016000206000820151816000015560208201518160010155604082015181600201556060820151816003015560808201518160040190805190602001906113ac929190611da0565b5060a08201518160050190805190602001906113c9929190611da0565b5060c08201518160060190805190602001906113e6929190611da0565b5060e08201518160070160006101000a81548160ff0219169083151502179055506101008201518160070160016101000a81548173ffffffffffffffffffffffffffffffffffffffff021916908373ffffffffffffffffffffffffffffffffffffffff1602179055509050508073ffffffffffffffffffffffffffffffffffffffff166108fc349081150290604051600060405180830381858888f19350505050158015611498573d6000803e3d6000fd5b50505050505050505050565b60045481565b6005602052806000526040600020600091509050806000015490806001015490806002015490806003015490806004018054600181600116156101000203166002900480601f01602080910402602001604051908101604052809291908181526020018280546001816001161561010002031660029004801561156e5780601f106115435761010080835404028352916020019161156e565b820191906000526020600020905b81548152906001019060200180831161155157829003601f168201915b505050505090806005018054600181600116156101000203166002900480601f01602080910402602001604051908101604052809291908181526020018280546001816001161561010002031660029004801561160c5780601f106115e15761010080835404028352916020019161160c565b820191906000526020600020905b8154815290600101906020018083116115ef57829003601f168201915b505050505090806006018054600181600116156101000203166002900480601f0160208091040260200160405190810160405280929190818152602001828054600181600116156101000203166002900480156116aa5780601f1061167f576101008083540402835291602001916116aa565b820191906000526020600020905b81548152906001019060200180831161168d57829003601f168201915b5050505050908060070160009054906101000a900460ff16908060070160019054906101000a900473ffffffffffffffffffffffffffffffffffffffff16905089565b8560006006600083815260200190815260200160002054905061170e611d3b565b60056000838152602001908152602001600020610120604051908101604052908160008201548152602001600182015481526020016002820154815260200160038201548152602001600482018054600181600116156101000203166002900480601f0160208091040260200160405190810160405280929190818152602001828054600181600116156101000203166002900480156117ef5780601f106117c4576101008083540402835291602001916117ef565b820191906000526020600020905b8154815290600101906020018083116117d257829003601f168201915b50505050508152602001600582018054600181600116156101000203166002900480601f0160208091040260200160405190810160405280929190818152602001828054600181600116156101000203166002900480156118915780601f1061186657610100808354040283529160200191611891565b820191906000526020600020905b81548152906001019060200180831161187457829003601f168201915b50505050508152602001600682018054600181600116156101000203166002900480601f0160208091040260200160405190810160405280929190818152602001828054600181600116156101000203166002900480156119335780601f1061190857610100808354040283529160200191611933565b820191906000526020600020905b81548152906001019060200180831161191657829003601f168201915b505050505081526020016007820160009054906101000a900460ff161515151581526020016007820160019054906101000a900473ffffffffffffffffffffffffffffffffffffffff1673ffffffffffffffffffffffffffffffffffffffff1673ffffffffffffffffffffffffffffffffffffffff16815250509050600081604001511415156119c257600080fd5b6000891315156119d157600080fd5b60016003600082825401925050819055506101206040519081016040528060035481526020018a81526020018981526020018881526020018781526020018681526020018581526020016000151581526020013373ffffffffffffffffffffffffffffffffffffffff16815250600560006003548152602001908152602001600020600082015181600001556020820151816001015560408201518160020155606082015181600301556080820151816004019080519060200190611a97929190611da0565b5060a0820151816005019080519060200190611ab4929190611da0565b5060c0820151816006019080519060200190611ad1929190611da0565b5060e08201518160070160006101000a81548160ff0219169083151502179055506101008201518160070160016101000a81548173ffffffffffffffffffffffffffffffffffffffff021916908373ffffffffffffffffffffffffffffffffffffffff160217905550905050600354600660008b8152602001908152602001600020819055507fd5769e592e90b8e821fc58f5a675f9480c9454f079ba738070146605459723686003548a8a8a8a8a8a600033604051808a8152602001898152602001888152602001878152602001806020018060200180602001861515151581526020018573ffffffffffffffffffffffffffffffffffffffff1673ffffffffffffffffffffffffffffffffffffffff168152602001848103845289818151815260200191508051906020019080838360005b83811015611c20578082015181840152602081019050611c05565b50505050905090810190601f168015611c4d5780820380516001836020036101000a031916815260200191505b50848103835288818151815260200191508051906020019080838360005b83811015611c86578082015181840152602081019050611c6b565b50505050905090810190601f168015611cb35780820380516001836020036101000a031916815260200191505b50848103825287818151815260200191508051906020019080838360005b83811015611cec578082015181840152602081019050611cd1565b50505050905090810190601f168015611d195780820380516001836020036101000a031916815260200191505b509c5050505050505050505050505060405180910390a1505050505050505050565b6101206040519081016040528060008152602001600081526020016000815260200160008152602001606081526020016060815260200160608152602001600015158152602001600073ffffffffffffffffffffffffffffffffffffffff1681525090565b828054600181600116156101000203166002900490600052602060002090601f016020900481019282601f10611de157805160ff1916838001178555611e0f565b82800160010185558215611e0f579182015b82811115611e0e578251825591602001919060010190611df3565b5b509050611e1c9190611e20565b5090565b611e4291905b80821115611e3e576000816000905550600101611e26565b5090565b9056fea165627a7a72305820d0d0ca05a1ac674e938bd26f950172257ec20bd678a536aff70a4cf8cba5067e0029",
  "source": "pragma solidity ^0.5.0;\r\n\r\ncontract E_contract {\r\n     string public  name;\r\n    address public owner;\r\n    string public count;\r\n    uint public carCount=0;\r\n    uint public productCount;\r\n    //mapping\r\n    mapping(uint => Car) public Cars;\r\n    //key car_number  //value index\r\n    mapping(int=> uint) public indexes ;\r\n\r\n    struct Car {\r\n        uint index; // shaseh\r\n        int car_number;\r\n        uint price;\r\n        uint ownerN_ID;\r\n        string model ;\r\n        string Description;\r\n        string color;\r\n        bool for_sell ;\r\n        address payable owner;\r\n        }\r\n\r\n\r\n    constructor() public {\r\n        name = \"contract ^ - ^\";\r\n        count = \"count\";\r\n        carCount=0;\r\n        productCount=0;\r\n        \r\n    }\r\n\r\n    event CarCreated(\r\n        uint index, // shaseh\r\n        int car_num,\r\n        uint price,\r\n        uint ownerN_ID,\r\n        string model ,\r\n        string Description,\r\n        string color,\r\n        bool for_sell ,\r\n        address payable owner\r\n    );\r\n\r\n    \r\n\r\n    function createCar (int car_num ,uint price  , uint ownerN_ID , string memory model  , string memory descrip , string memory color )\r\n     unique_Car(car_num)  public{\r\n\r\n        require(car_num > 0);\r\n        // Increment car count\r\n        carCount+=1;\r\n\r\n        Cars[carCount] = Car(carCount,car_num , price , ownerN_ID ,model , descrip , color , false, msg.sender);\r\n        indexes[car_num]=carCount;\r\n        emit CarCreated( carCount,car_num , price , ownerN_ID ,model , descrip , color , false, msg.sender );\r\n\r\n    }\r\n\r\n modifier check_car (int id) {\r\n        \r\n    uint indx=indexes[id];\r\n    Car memory car = Cars[indx];\r\n      // Fetch the car\r\n\r\n     address payable seller = car.owner;\r\n    require(car.for_sell);\r\n    require(msg.value >= car.price);\r\n    // Require that the buyer is not the seller\r\n    require(seller != msg.sender);\r\n    \r\n    _;\r\n        \r\n    }\r\n\r\n    modifier unique_Car (int id) {\r\n        \r\n    uint indx=indexes[id];\r\n    Car memory car = Cars[indx];\r\n      // Fetch the car\r\n    require (car.price==0);\r\n    \r\n    _;\r\n        \r\n    }\r\n    \r\n    \r\n    function chang_Car_price_status (int id , uint price)public {\r\n\r\n    // Fetch the car\r\n         uint indx=indexes[id];\r\n         Car memory car = Cars[indx];\r\n    carCount+=1;\r\n    car.for_sell=true;\r\n    car.price=price;\r\n    Cars[carCount] = car;\r\n    indexes[car.car_number]=carCount;\r\n    // Pay the seller\r\n    }\r\n \r\n function sell (int id  , uint buyer_N_ID) check_car (id) public  payable {\r\n\r\n    // Fetch the car\r\n    uint indx=indexes[id];\r\n    Car memory car = Cars[indx];\r\n\r\n    // Fetch the car\r\n\r\n    address payable seller = car.owner;\r\n    \r\n    // Update the car\r\n     // Transfer ownership to the buyer\r\n     car.owner = msg.sender;\r\n   \r\n    car.ownerN_ID=buyer_N_ID;\r\n    car.for_sell= false;\r\n    carCount++;\r\n    car.index=carCount;\r\n    indexes[car.car_number]=carCount;\r\n    Cars[carCount] = car;\r\n    // Pay the seller\r\n    address(seller).transfer(msg.value);\r\n    }\r\n\r\n}",
  "sourcePath": "D:/my files/FCI.CU/4th year/GP/worked/E_contract/src/contracts/E_contract.sol",
  "compiler": {
    "name": "solc",
    "version": "0.5.0+commit.1d4f565a.Emscripten.clang"
  },
  "schemaVersion": "3.0.2",
  "updatedAt": "2020-08-14T18:33:51.422Z",
  "devdoc": {
    "methods": {}
  },
  "userdoc": {
    "methods": {}
  }
}